{
  "_format": "hh-sol-artifact-1",
  "contractName": "MedicalAccess",
  "sourceName": "contracts/MedicalAccess.sol",
  "abi": [
    {
      "anonymous": false,
      "inputs": [
        {
          "indexed": true,
          "internalType": "uint256",
          "name": "recordId",
          "type": "uint256"
        },
        {
          "indexed": true,
          "internalType": "address",
          "name": "patient",
          "type": "address"
        },
        {
          "indexed": true,
          "internalType": "address",
          "name": "doctor",
          "type": "address"
        }
      ],
      "name": "AccessGranted",
      "type": "event"
    },
    {
      "anonymous": false,
      "inputs": [
        {
          "indexed": true,
          "internalType": "uint256",
          "name": "recordId",
          "type": "uint256"
        },
        {
          "indexed": true,
          "internalType": "address",
          "name": "patient",
          "type": "address"
        },
        {
          "indexed": true,
          "internalType": "address",
          "name": "doctor",
          "type": "address"
        }
      ],
      "name": "AccessRevoked",
      "type": "event"
    },
    {
      "anonymous": false,
      "inputs": [
        {
          "indexed": true,
          "internalType": "uint256",
          "name": "recordId",
          "type": "uint256"
        },
        {
          "indexed": true,
          "internalType": "address",
          "name": "patient",
          "type": "address"
        },
        {
          "indexed": false,
          "internalType": "string",
          "name": "recordType",
          "type": "string"
        }
      ],
      "name": "RecordAdded",
      "type": "event"
    },
    {
      "inputs": [
        {
          "internalType": "uint256",
          "name": "",
          "type": "uint256"
        },
        {
          "internalType": "address",
          "name": "",
          "type": "address"
        }
      ],
      "name": "accessRegistry",
      "outputs": [
        {
          "internalType": "uint256",
          "name": "",
          "type": "uint256"
        }
      ],
      "stateMutability": "view",
      "type": "function"
    },
    {
      "inputs": [
        {
          "internalType": "address",
          "name": "_patientAddress",
          "type": "address"
        },
        {
          "internalType": "string",
          "name": "_ipfsCid",
          "type": "string"
        },
        {
          "internalType": "string",
          "name": "_recordType",
          "type": "string"
        }
      ],
      "name": "addRecord",
      "outputs": [
        {
          "internalType": "uint256",
          "name": "",
          "type": "uint256"
        }
      ],
      "stateMutability": "nonpayable",
      "type": "function"
    },
    {
      "inputs": [
        {
          "internalType": "address",
          "name": "_patient",
          "type": "address"
        }
      ],
      "name": "getPatientRecordIds",
      "outputs": [
        {
          "internalType": "uint256[]",
          "name": "",
          "type": "uint256[]"
        }
      ],
      "stateMutability": "view",
      "type": "function"
    },
    {
      "inputs": [
        {
          "internalType": "uint256",
          "name": "_recordId",
          "type": "uint256"
        }
      ],
      "name": "getRecord",
      "outputs": [
        {
          "internalType": "string",
          "name": "",
          "type": "string"
        },
        {
          "internalType": "string",
          "name": "",
          "type": "string"
        },
        {
          "internalType": "address",
          "name": "",
          "type": "address"
        }
      ],
      "stateMutability": "view",
      "type": "function"
    },
    {
      "inputs": [
        {
          "internalType": "uint256",
          "name": "_recordId",
          "type": "uint256"
        },
        {
          "internalType": "address",
          "name": "_doctor",
          "type": "address"
        },
        {
          "internalType": "uint256",
          "name": "_durationInSeconds",
          "type": "uint256"
        }
      ],
      "name": "grantAccess",
      "outputs": [],
      "stateMutability": "nonpayable",
      "type": "function"
    },
    {
      "inputs": [
        {
          "internalType": "uint256",
          "name": "",
          "type": "uint256"
        }
      ],
      "name": "records",
      "outputs": [
        {
          "internalType": "uint256",
          "name": "id",
          "type": "uint256"
        },
        {
          "internalType": "string",
          "name": "ipfsCid",
          "type": "string"
        },
        {
          "internalType": "address",
          "name": "patient",
          "type": "address"
        },
        {
          "internalType": "address",
          "name": "createdBy",
          "type": "address"
        },
        {
          "internalType": "string",
          "name": "recordType",
          "type": "string"
        },
        {
          "internalType": "uint256",
          "name": "timestamp",
          "type": "uint256"
        },
        {
          "internalType": "bool",
          "name": "exists",
          "type": "bool"
        }
      ],
      "stateMutability": "view",
      "type": "function"
    },
    {
      "inputs": [
        {
          "internalType": "uint256",
          "name": "_recordId",
          "type": "uint256"
        },
        {
          "internalType": "address",
          "name": "_doctor",
          "type": "address"
        }
      ],
      "name": "revokeAccess",
      "outputs": [],
      "stateMutability": "nonpayable",
      "type": "function"
    }
  ],
  "bytecode": "0x608060405234801561001057600080fd5b506118fe806100206000396000f3fe608060405234801561001057600080fd5b506004361061007d5760003560e01c8063a74a8dd01161005b578063a74a8dd01461011a578063d47b41d51461014a578063d603b2841461017a578063d9a5ec1b146101965761007d565b806303e9e6091461008257806334461067146100b45780636248204e146100ea575b600080fd5b61009c60048036038101906100979190610e55565b6101b2565b6040516100ab93929190610f53565b60405180910390f35b6100ce60048036038101906100c99190610e55565b610562565b6040516100e19796959493929190610fc2565b60405180910390f35b61010460048036038101906100ff919061106b565b610701565b6040516101119190611156565b60405180910390f35b610134600480360381019061012f9190611178565b610798565b60405161014191906111b8565b60405180910390f35b610164600480360381019061015f9190611238565b6107bd565b60405161017191906111b8565b60405180910390f35b610194600480360381019061018f91906112cd565b610a8e565b005b6101b060048036038101906101ab9190611178565b610c57565b005b60608060006001600085815260200190815260200160002060060160009054906101000a900460ff1661021a576040517f08c379a00000000000000000000000000000000000000000000000000000000081526004016102119061136c565b60405180910390fd5b60006001600086815260200190815260200160002060020160009054906101000a900473ffffffffffffffffffffffffffffffffffffffff1673ffffffffffffffffffffffffffffffffffffffff163373ffffffffffffffffffffffffffffffffffffffff161490506000426002600088815260200190815260200160002060003373ffffffffffffffffffffffffffffffffffffffff1673ffffffffffffffffffffffffffffffffffffffff1681526020019081526020016000205411905081806102e35750805b610322576040517f08c379a0000000000000000000000000000000000000000000000000000000008152600401610319906113fe565b60405180910390fd5b6000600160008881526020019081526020016000206040518060e00160405290816000820154815260200160018201805461035c9061144d565b80601f01602080910402602001604051908101604052809291908181526020018280546103889061144d565b80156103d55780601f106103aa576101008083540402835291602001916103d5565b820191906000526020600020905b8154815290600101906020018083116103b857829003601f168201915b505050505081526020016002820160009054906101000a900473ffffffffffffffffffffffffffffffffffffffff1673ffffffffffffffffffffffffffffffffffffffff1673ffffffffffffffffffffffffffffffffffffffff1681526020016003820160009054906101000a900473ffffffffffffffffffffffffffffffffffffffff1673ffffffffffffffffffffffffffffffffffffffff1673ffffffffffffffffffffffffffffffffffffffff16815260200160048201805461049a9061144d565b80601f01602080910402602001604051908101604052809291908181526020018280546104c69061144d565b80156105135780601f106104e857610100808354040283529160200191610513565b820191906000526020600020905b8154815290600101906020018083116104f657829003601f168201915b50505050508152602001600582015481526020016006820160009054906101000a900460ff16151515158152505090508060200151816080015182606001519550955095505050509193909250565b600160205280600052604060002060009150905080600001549080600101805461058b9061144d565b80601f01602080910402602001604051908101604052809291908181526020018280546105b79061144d565b80156106045780601f106105d957610100808354040283529160200191610604565b820191906000526020600020905b8154815290600101906020018083116105e757829003601f168201915b5050505050908060020160009054906101000a900473ffffffffffffffffffffffffffffffffffffffff16908060030160009054906101000a900473ffffffffffffffffffffffffffffffffffffffff16908060040180546106659061144d565b80601f01602080910402602001604051908101604052809291908181526020018280546106919061144d565b80156106de5780601f106106b3576101008083540402835291602001916106de565b820191906000526020600020905b8154815290600101906020018083116106c157829003601f168201915b5050505050908060050154908060060160009054906101000a900460ff16905087565b6060600360008373ffffffffffffffffffffffffffffffffffffffff1673ffffffffffffffffffffffffffffffffffffffff16815260200190815260200160002080548060200260200160405190810160405280929190818152602001828054801561078c57602002820191906000526020600020905b815481526020019060010190808311610778575b50505050509050919050565b6002602052816000526040600020602052806000526040600020600091509150505481565b60008060008154809291906107d1906114ad565b91905055506000805490506040518060e0016040528082815260200187878080601f016020809104026020016040519081016040528093929190818152602001838380828437600081840152601f19601f8201169050808301925050505050505081526020018873ffffffffffffffffffffffffffffffffffffffff1681526020013373ffffffffffffffffffffffffffffffffffffffff16815260200185858080601f016020809104026020016040519081016040528093929190818152602001838380828437600081840152601f19601f82011690508083019250505050505050815260200142815260200160011515815250600160008381526020019081526020016000206000820151816000015560208201518160010190816108f891906116d0565b5060408201518160020160006101000a81548173ffffffffffffffffffffffffffffffffffffffff021916908373ffffffffffffffffffffffffffffffffffffffff16021790555060608201518160030160006101000a81548173ffffffffffffffffffffffffffffffffffffffff021916908373ffffffffffffffffffffffffffffffffffffffff160217905550608082015181600401908161099c91906116d0565b5060a0820151816005015560c08201518160060160006101000a81548160ff021916908315150217905550905050600360008873ffffffffffffffffffffffffffffffffffffffff1673ffffffffffffffffffffffffffffffffffffffff1681526020019081526020016000208190806001815401808255809150506001900390600052602060002001600090919091909150558673ffffffffffffffffffffffffffffffffffffffff16817f4f1eea90beb2ccd16be5b37fc1e1272af00b7e01520eff654685171f4bab636a8686604051610a799291906117de565b60405180910390a38091505095945050505050565b826001600082815260200190815260200160002060060160009054906101000a900460ff16610af2576040517f08c379a0000000000000000000000000000000000000000000000000000000008152600401610ae99061136c565b60405180910390fd5b6001600082815260200190815260200160002060020160009054906101000a900473ffffffffffffffffffffffffffffffffffffffff1673ffffffffffffffffffffffffffffffffffffffff163373ffffffffffffffffffffffffffffffffffffffff1614610b96576040517f08c379a0000000000000000000000000000000000000000000000000000000008152600401610b8d90611874565b60405180910390fd5b8142610ba29190611894565b6002600086815260200190815260200160002060008573ffffffffffffffffffffffffffffffffffffffff1673ffffffffffffffffffffffffffffffffffffffff168152602001908152602001600020819055508273ffffffffffffffffffffffffffffffffffffffff163373ffffffffffffffffffffffffffffffffffffffff16857f97a8264d9d0b9e21370349f9b49be012a5d1e27829879df8ba166dba48f898c660405160405180910390a450505050565b816001600082815260200190815260200160002060060160009054906101000a900460ff16610cbb576040517f08c379a0000000000000000000000000000000000000000000000000000000008152600401610cb29061136c565b60405180910390fd5b6001600082815260200190815260200160002060020160009054906101000a900473ffffffffffffffffffffffffffffffffffffffff1673ffffffffffffffffffffffffffffffffffffffff163373ffffffffffffffffffffffffffffffffffffffff1614610d5f576040517f08c379a0000000000000000000000000000000000000000000000000000000008152600401610d5690611874565b60405180910390fd5b60006002600085815260200190815260200160002060008473ffffffffffffffffffffffffffffffffffffffff1673ffffffffffffffffffffffffffffffffffffffff168152602001908152602001600020819055508173ffffffffffffffffffffffffffffffffffffffff163373ffffffffffffffffffffffffffffffffffffffff16847f260547d4038414ef72f081dcde91825693dff9bc433178f3e92ad36e0cd2275060405160405180910390a4505050565b600080fd5b600080fd5b6000819050919050565b610e3281610e1f565b8114610e3d57600080fd5b50565b600081359050610e4f81610e29565b92915050565b600060208284031215610e6b57610e6a610e15565b5b6000610e7984828501610e40565b91505092915050565b600081519050919050565b600082825260208201905092915050565b60005b83811015610ebc578082015181840152602081019050610ea1565b60008484015250505050565b6000601f19601f8301169050919050565b6000610ee482610e82565b610eee8185610e8d565b9350610efe818560208601610e9e565b610f0781610ec8565b840191505092915050565b600073ffffffffffffffffffffffffffffffffffffffff82169050919050565b6000610f3d82610f12565b9050919050565b610f4d81610f32565b82525050565b60006060820190508181036000830152610f6d8186610ed9565b90508181036020830152610f818185610ed9565b9050610f906040830184610f44565b949350505050565b610fa181610e1f565b82525050565b60008115159050919050565b610fbc81610fa7565b82525050565b600060e082019050610fd7600083018a610f98565b8181036020830152610fe98189610ed9565b9050610ff86040830188610f44565b6110056060830187610f44565b81810360808301526110178186610ed9565b905061102660a0830185610f98565b61103360c0830184610fb3565b98975050505050505050565b61104881610f32565b811461105357600080fd5b50565b6000813590506110658161103f565b92915050565b60006020828403121561108157611080610e15565b5b600061108f84828501611056565b91505092915050565b600081519050919050565b600082825260208201905092915050565b6000819050602082019050919050565b6110cd81610e1f565b82525050565b60006110df83836110c4565b60208301905092915050565b6000602082019050919050565b600061110382611098565b61110d81856110a3565b9350611118836110b4565b8060005b8381101561114957815161113088826110d3565b975061113b836110eb565b92505060018101905061111c565b5085935050505092915050565b6000602082019050818103600083015261117081846110f8565b905092915050565b6000806040838503121561118f5761118e610e15565b5b600061119d85828601610e40565b92505060206111ae85828601611056565b9150509250929050565b60006020820190506111cd6000830184610f98565b92915050565b600080fd5b600080fd5b600080fd5b60008083601f8401126111f8576111f76111d3565b5b8235905067ffffffffffffffff811115611215576112146111d8565b5b602083019150836001820283011115611231576112306111dd565b5b9250929050565b60008060008060006060868803121561125457611253610e15565b5b600061126288828901611056565b955050602086013567ffffffffffffffff81111561128357611282610e1a565b5b61128f888289016111e2565b9450945050604086013567ffffffffffffffff8111156112b2576112b1610e1a565b5b6112be888289016111e2565b92509250509295509295909350565b6000806000606084860312156112e6576112e5610e15565b5b60006112f486828701610e40565b935050602061130586828701611056565b925050604061131686828701610e40565b9150509250925092565b7f5265636f726420746964616b20646974656d756b616e00000000000000000000600082015250565b6000611356601683610e8d565b915061136182611320565b602082019050919050565b6000602082019050818103600083015261138581611349565b9050919050565b7f414b534553204449544f4c414b3a20416e646120746964616b206d656d696c6960008201527f6b6920697a696e2e000000000000000000000000000000000000000000000000602082015250565b60006113e8602883610e8d565b91506113f38261138c565b604082019050919050565b60006020820190508181036000830152611417816113db565b9050919050565b7f4e487b7100000000000000000000000000000000000000000000000000000000600052602260045260246000fd5b6000600282049050600182168061146557607f821691505b6020821081036114785761147761141e565b5b50919050565b7f4e487b7100000000000000000000000000000000000000000000000000000000600052601160045260246000fd5b60006114b882610e1f565b91507fffffffffffffffffffffffffffffffffffffffffffffffffffffffffffffffff82036114ea576114e961147e565b5b600182019050919050565b7f4e487b7100000000000000000000000000000000000000000000000000000000600052604160045260246000fd5b60008190508160005260206000209050919050565b60006020601f8301049050919050565b600082821b905092915050565b6000600883026115867fffffffffffffffffffffffffffffffffffffffffffffffffffffffffffffffff82611549565b6115908683611549565b95508019841693508086168417925050509392505050565b6000819050919050565b60006115cd6115c86115c384610e1f565b6115a8565b610e1f565b9050919050565b6000819050919050565b6115e7836115b2565b6115fb6115f3826115d4565b848454611556565b825550505050565b600090565b611610611603565b61161b8184846115de565b505050565b5b8181101561163f57611634600082611608565b600181019050611621565b5050565b601f8211156116845761165581611524565b61165e84611539565b8101602085101561166d578190505b61168161167985611539565b830182611620565b50505b505050565b600082821c905092915050565b60006116a760001984600802611689565b1980831691505092915050565b60006116c08383611696565b9150826002028217905092915050565b6116d982610e82565b67ffffffffffffffff8111156116f2576116f16114f5565b5b6116fc825461144d565b611707828285611643565b600060209050601f83116001811461173a5760008415611728578287015190505b61173285826116b4565b86555061179a565b601f19841661174886611524565b60005b828110156117705784890151825560018201915060208501945060208101905061174b565b8683101561178d5784890151611789601f891682611696565b8355505b6001600288020188555050505b505050505050565b82818337600083830152505050565b60006117bd8385610e8d565b93506117ca8385846117a2565b6117d383610ec8565b840190509392505050565b600060208201905081810360008301526117f98184866117b1565b90509392505050565b7f48616e79612070617369656e2070656d696c696b20646174612079616e67206260008201527f6f6c656820616b73657300000000000000000000000000000000000000000000602082015250565b600061185e602a83610e8d565b915061186982611802565b604082019050919050565b6000602082019050818103600083015261188d81611851565b9050919050565b600061189f82610e1f565b91506118aa83610e1f565b92508282019050808211156118c2576118c161147e565b5b9291505056fea2646970667358221220bdc7213811465d54bf59c5a835eb71065adacf5b8272263368320ce7e31e285364736f6c63430008130033",
  "linkReferences": {},
  "deployedLinkReferences": {}
}